:020000040800F2
:1000000000000520F9020008FF02000803030008B1
:100010001B0300081F03000837030008000000004E
:100020000000000000000000000000004F03000876
:100030005303000800000000570300085B0300089A
:1000400069030008690300086903000869030008E0
:1000500069030008690300086903000869030008D0
:1000600069030008690300086903000869030008C0
:1000700069030008690300086903000869030008B0
:1000800069030008690300086903000869030008A0
:100090006903000869030008690300086903000890
:1000A0006903000869030008690300086903000880
:1000B0006903000869030008690300086903000870
:1000C0006903000869030008690300086903000860
:1000D0006903000869030008690300086903000850
:1000E0006903000869030008690300086903000840
:1000F0006903000869030008690300086903000830
:10010000690300086903000869030008690300081F
:10011000690300086903000869030008690300080F
:1001200069030008690300086903000869030008FF
:1001300069030008690300086903000869030008EF
:1001400069030008690300086903000869030008DF
:1001500069030008690300086903000869030008CF
:1001600069030008690300086903000869030008BF
:100170006903000869030008690300080000000023
:10018000690300086903000869030008690300089F
:10019000690300086903000869030008690300088F
:1001A000690300086903000869030008690300087F
:1001B000690300086903000869030008690300086F
:1001C000690300086903000800B583B001F074FA00
:1001D000384B394A1360394A1360394900E02146E7
:1001E000384B99420BD20A684B6801F10C048868BD
:1001F0009842F4D952F8041B43F8041BF8E72E4B3D
:100200001A68314B9A4200D0FEE72C4B1A682F4BEC
:100210009A42F9D1274B2E4A13602E4A13602E4A78
:1002200005E0002043F8040B9A42FAD80A462B4B0B
:100230009A4204D2114651F8083B5268F4E7244B25
:100240001B6813B9234B1B6803B1FEE701F0B0FA3A
:10025000694601A801F024FA214C224BE41AA410AB
:10026000002504E01F4B53F8253098470135AC4278
:10027000F8DC1D4C1D4BE41AA410002504E01B4BB8
:1002800053F8253098470135AC42F8DC00990198C5
:100290001FF0B6FE0546164C164BE41AA41004E0F7
:1002A000013C144B53F824309847002CF8DC2846C6
:1002B00001F0F0F9BABADECA0000002010000020F8
:1002C0006C03000884030008785634123254769880
:1002D000140000209000002084030008940300080C
:1002E0009403000894030008940300089403000892
:1002F000940300089403000808B5FFF765FF00BEEB
:10030000FEE71EF0040F0CBFEFF30880EFF3098047
:100310007146124A104700BEFEE700BEFEE71EF01F
:10032000040F0CBFEFF30880EFF3098071460C4A0D
:10033000104700BEFEE71EF0040F0CBFEFF308806D
:10034000EFF309807146074A104700BEFEE700BE82
:10035000FEE700BEFEE700BEFEE770471703000899
:0C036000330300084B03000800BEFEE75A
:10036C00481A00080000002014000020481A000859
:10037C000000001000000010140000209400002069
:08038C00000000100000001049
:1003940010B50446074B1868074BA3FB00308009CF
:1003A40000F094F8002221464FF0FF3000F04AF8A4
:1003B400002010BD0C000020D34D621008B5074A80
:1003C400136843F400731360032000F01DF80F203A
:1003D400FFF7DEFF01F081FA002008BD003C024077
:1003E400014B1868704700BF1C00002010B582B094
:1003F4000190FFF7F5FF0446FFF7F2FF001B019B96
:100404009842F9D302B010BD10B50446C31E042BA4
:100414000DD8094AD36823F4E0631B041B0C24029F
:1004240004F4E0641C43054B2343D36010BDA421B2
:10043400034801F03BF9ECE700ED00E00000FA05A9
:100444008019000870B505460C4616460F2A21D8B7
:100454000F2C24D8194BDB68C3F30223C3F1070123
:10046400042928BF04211A1D062A1DD9033B4FF075
:10047400FF3202FA01F124EA01049C4002FA03F378
:1004840026EA03063443002D10DB2401E4B20C4BAE
:100494005C5570BDBC210B4801F008F9D8E7BD21BB
:1004A400084801F003F9D5E70023E0E705F00F055C
:1004B4002401E4B2044B5C55EBE700BF00ED00E01F
:1004C40000E400E08019000814ED00E00138B0F108
:1004D400807F0AD2064B5860064AF02182F8231026
:1004E4000020986007221A6070470120704700BFFF
:1004F40010E000E000ED00E030B583B0044603688E
:100504000F2B2BD8236813F0010F41D06268B2F58A
:10051400803318BF0123002A08BF002313B1B2F5AA
:10052400A02F21D1A84B9B6803F00C03042B26D0E9
:10053400A54B9B6803F00C03082B1BD06368B3F531
:10054400803F54D0002B68D19F4B1A6822F480322C
:100554001A601A6822F480221A604DE04FF4847104
:100564009A4801F0A3F8CDE74FF48771974801F05A
:100574009DF8D7E7944B5B6813F4800FDED0924B61
:100584001B6813F4003F03D06368002B00F026823D
:10059400236813F0020F00F08E80E368012B62D809
:1005A40023691F2B65D8884B9B6813F00C0F6BD005
:1005B400854B9B6803F00C03082B60D0E368002B89
:1005C40000F0A680804A136843F001031360FFF72C
:1005D40007FF05467C4B1B6813F0020F40F089802F
:1005E400FFF7FEFE401B0228F4D90320FBE1764A04
:1005F400136843F48033136063682BB3FFF7F0FE92
:100604000546714B1B6813F4003FC1D1FFF7E8FEA8
:10061400401B6428F5D90320E5E1B3F5A02F09D0E8
:10062400694B1A6822F480321A601A6822F4802214
:100634001A60E1E7644B1A6842F480221A601A686F
:1006440042F480321A60D7E7FFF7CAFE05465E4BD4
:100654001B6813F4003F9BD0FFF7C2FE401B6428C5
:10066400F5D90320BFE14FF4A071584801F01EF8FA
:1006740096E740F24111554801F018F893E7524BC0
:100684005B6813F4800F99D14F4B1B6813F0020F72
:1006940003D0E368012B40F0A3814B48036823F0A7
:1006A400F8032169F82292FAA2F2B2FA82F201FA6C
:1006B40002F213430360236813F0080F56D06369F2
:1006C400012B39D86369002B3CD03F4A536F43F068
:1006D40001035367FFF784FE05463B4B5B6F13F042
:1006E400020F43D1FFF77CFE401B0228F5D90320FB
:1006F40079E13548036823F0F8032169F82292FA76
:10070400A2F2B2FA82F201FA02F213430360D2E7D0
:100714002D4A136823F001031360FFF761FE0546B9
:10072400294B1B6813F0020FC5D0FFF759FE401B7D
:100734000228F5D9032056E140F28111234800F044
:10074400B5FFBFE7204A536F23F001035367FFF758
:1007540047FE05461C4B5B6F13F0020F06D0FFF7F4
:100764003FFE401B0228F5D903203CE1236813F027
:10077400040F7CD0A368052B18BF012B1DD8124B86
:100784001A6C42F080521A641B6C03F0805301937C
:10079400019B0F4A136843F480731360FFF720FE34
:1007A40005460B4B1B6813F4807F13D1FFF718FE2B
:1007B400401B6428F5D9032015E140F2AB1103482E
:1007C40000F074FFDBE700BF00380240B4190008F2
:1007D40000700040A368012B0AD00BBB844B1A6F36
:1007E40022F001021A671A6F22F004021A6704E069
:1007F4007F4A136F43F001031367A36833B3FFF712
:10080400EFFD05467A4B1B6F13F0020F2FD1FFF754
:10081400E7FD401B41F288339842F3D90320E2E01C
:10082400052B09D0724B1A6F22F001021A671A6F56
:1008340022F004021A67E0E76D4B1A6F42F00402DB
:100844001A671A6F42F001021A67D6E7FFF7C8FD6C
:100854000546674B1B6F13F0020F08D0FFF7C0FD6E
:10086400401B41F288339842F3D90320BBE0A369CB
:10087400022B40D8A369002B00F0B4805C4A926834
:1008840002F00C02082A00F0B080022B40F09080A5
:10089400E269B2F5800318BF0123002A08BF0023D0
:1008A4007BBB236A023B3D2B31D8636A323BB3F5F1
:1008B400BF7F32D8A36A022B18BF042B03D0062BA8
:1008C40001D0082B2FD1E36A023B0D2B31D8484AC3
:1008D400136823F080731360FFF782FD0546444BD1
:1008E4001B6813F0007F2AD0FFF77AFD401B022813
:1008F400F5D9032077E04FF4F0713E4800F0D6FEBE
:10090400B8E740F2E9113B4800F0D0FEC9E74FF4E4
:10091400F571384800F0CAFEC7E740F2EB113548DC
:1009240000F0C4FEC6E74FF4F671324800F0BEFE94
:10093400C9E740F2ED112F4800F0B8FEC7E7E369BC
:10094400226A1343616A47F6C07292FAA2F2B2FABB
:1009540082F201FA02F21343A26A5208013A4FF4F6
:10096400403191FAA1F1B1FA81F18A401343E16A6D
:100974004FF0706292FAA2F2B2FA82F201FA02F233
:1009840013431B4A5360136843F080731360FFF7EB
:1009940027FD0446164B1B6813F0007F06D1FFF7B2
:1009A4001FFD001B0228F5D903201CE000201AE0DB
:1009B4000F4A136823F080731360FFF711FD044698
:1009C4000B4B1B6813F0007F06D0FFF709FD001BDB
:1009D4000228F5D9032006E0002004E0012002E00B
:1009E400012000E0002003B030BD0120FBE700BF80
:1009F40000380240B4190008214B9B6803F00C0333
:100A0400042B38D0082B38D11D4B586800F03F0018
:100A14005B6813F4800F1ED01A4AB2FBF0F2184B35
:100A2400586847F6C073184093FAA3F3B3FA83F3F4
:100A3400D84000FB02F0124B5B6803F440334FF4E0
:100A4400403292FAA2F2B2FA82F2D34001335B004E
:100A5400B0FBF3F070470C4AB2FBF0F2084B586855
:100A640047F6C073184093FAA3F3B3FA83F3D8405C
:100A740000FB02F0DFE7034870470348704700BFFC
:100A84000038024000127A000024F40070B50446D5
:100A94000D460368013B0E2B63D80F2D67D88D4B91
:100AA4001B6803F00F03AB420BD28A4A136823F08E
:100AB4000F032B431360136803F00F03AB4240F0A2
:100AC4000281236813F0020F1DD0A368B3F18002E2
:100AD40018BF0122002B08BF00226AB1902B0BD053
:100AE400A02B09D0B02B07D0C02B05D0D02B03D01E
:100AF400E02B01D0F02B40D1774A936823F0F00328
:100B0400A1680B439360236813F0010F6DD06368F1
:100B1400022B38D86368012B3BD0022B40D06E4A9D
:100B2400126812F0020F00F0D0806B498A6822F03C
:100B3400030213438B60FFF753FC06466368012BE3
:100B440035D0022B42D0644B9B6813F00C0F4CD071
:100B5400FFF746FC831B41F288329342F3D903200A
:100B6400A4E04FF413715D4800F0A0FD95E740F256
:100B74004D215A4800F09AFD91E74FF419715748F6
:100B840000F094FDB8E740F26B21544800F08EFD6C
:100B9400C0E7514A126812F4003FC6D1012085E033
:100BA4004D4A126812F0007FBFD101207EE04A4B0B
:100BB4009B6803F00C03042B17D0FFF711FC831B75
:100BC40041F288329342F2D903206FE0424B9B6892
:100BD40003F00C03082B08D0FFF702FC801B41F242
:100BE40088339842F2D9032060E03A4B1B6803F043
:100BF4000F03AB420AD9374A136823F00F032B4380
:100C04001360136803F00F03AB4260D1236813F041
:100C1400040F18D0E368B3F5805218BF0122002BEB
:100C240008BF002242B1B3F5A05F05D0B3F5C05FA1
:100C340002D0B3F5E05F3AD1274A936823F4E05336
:100C4400E1680B439360236813F0080F19D02369FC
:100C5400B3F5805218BF0122002B08BF002242B115
:100C6400B3F5A05F05D0B3F5C05F02D0B3F5E05F84
:100C740023D1194A936823F46043216943EAC103E9
:100C84009360FFF7B9FE144B9B6803F0F003F02266
:100C940092FAA2F2B2FA82F2D340114AD35CD8405B
:100CA400104B18600F20FFF773FB002070BD40F25B
:100CB400BE210A4800F0FAFCBEE740F2C52107480D
:100CC40000F0F4FCD5E70120F0E70120EEE7012075
:100CD400ECE700BF003C024000380240B4190008B1
:100CE400141A00080C000020014B1868704700BF5C
:100CF4000C00002008B5FFF7F7FF074B9B6803F4CF
:100D0400E0534FF4E05292FAA2F2B2FA82F2D340E4
:100D1400024AD35CD84008BD00380240241A0008B7
:100D240008B5FFF7E1FF074B9B6803F460434FF4FA
:100D3400604292FAA2F2B2FA82F2D340024AD35C3F
:100D4400D84008BD00380240241A000870472DE935
:100D5400F84305460F4616469946DDF820802C6870
:100D6400E46937EA04030CBF01240024B4421FD110
:100D7400B8F1FF3FF3D0B8F1000F05D0FFF730FB17
:100D8400A0EB09004045EAD32A68136823F4D07322
:100D940013602A68936823F001039360202385F885
:100DA400693085F86A30002385F86830032000E054
:100DB4000020BDE8F8832DE9F04182B01E4690F88A
:100DC4006930DBB2202B4ED104460D469046B2FA70
:100DD40082F35B09002908BF0123002B47D190F857
:100DE4006830012B45D0012380F868300023C366A6
:100DF400212380F86930FFF7F3FA0746A4F85080FE
:100E0400A4F8528005E0294611F8012B23689A6260
:100E14000D46B4F85220C2B1013AA4F8522000960B
:100E24003B46002280212046FFF791FF18BBA368B0
:100E3400B3F5805FE7D12369002BE4D135F8023B99
:100E44002268C3F308039362E3E700963B4640211C
:100E54002046FFF77CFF80B9202384F86930002303
:100E640084F8683000E0022002B0BDE8F08101207F
:100E7400FAE70220F8E70320F6E70320F4E700008E
:100E840038B504464268A84B9A427ED8A368B3F1A9
:100E9400805F18BF002B02D0B3F5805F7BD1E2687E
:100EA400B2F5005318BF0123002A08BF0023002B0A
:100EB40077D12269B2F5806318BF0123002A08BFE5
:100EC400002313B1B2F5C06F71D1636933F00C0222
:100ED40000D123B940F23171944800F0E7FBA269D4
:100EE400B2F5807318BF0123002A08BF00232BB179
:100EF400B2F5007F02D0B2F5407F5ED1226AB2F52E
:100F0400006318BF0123002A08BF0023002B5AD115
:100F1400A3682269134362691343E2691343216896
:100F24000868834A024013430B602268536823F421
:100F34004053E1680B435360A369226A1A43216852
:100F44008B6823F4306313438B602368794A93429C
:100F54003FD0794A934250D0784A934266D0784A37
:100F6400934200F08C80774A934200F09F80764A47
:100F7400934200F0B180754A934200F0C380744AF2
:100F8400934200F0EC80102561E040F22D71674837
:100F940000F08CFB7AE740F22E71644800F086FB87
:100FA4007DE740F22F71614800F080FB81E74FF448
:100FB400E6615E4800F07AFB87E740F232715B48F5
:100FC40000F074FB9AE740F23371584800F06EFB6E
:100FD4009EE702F59432D2F8902002F00302032A2D
:100FE40003D8DFE802F0D106040810252FE002251B
:100FF4002DE004252BE0082529E002F5FA32D2F889
:10100400902002F00C020C2A08D8DFE802F0BF0797
:1010140007070B070707090707070D00102516E048
:10102400022514E0042512E0082510E002F5F83248
:10103400D2F8902002F03002202A00F0A98019D8BA
:10104400002A00F0A780102A40F0A6800425E26957
:10105400B2F5004F00F0CC80082D00F24681DFE8A5
:1010640015F00D011801240144012E01440144012D
:1010740044013A01302A40F091800825E7E702F55F
:10108400F632D2F8902002F0C002802A00F0888064
:1010940007D8002A00F08680402A40F08580042585
:1010A400D5E7C02A40F082800825D0E702F5F43263
:1010B400D2F8902002F44072B2F5007F78D006D8BE
:1010C400002A77D0B2F5807F76D10425BFE7B2F548
:1010D400407F73D10825BAE702F59232D2F8902006
:1010E40002F44062B2F5006F6AD006D8002A69D0D3
:1010F400B2F5806F68D10425A9E7B2F5406F65D1D8
:101104000825A4E702F5E032D2F8902002F4405218
:10111400B2F5005F5CD01DD8002A5BD0B2F5805FC9
:101124005AD1042593E700BF40548900E41900080C
:10113400F369FFEF00100140004400400048004004
:10114400004C004000500040001401400078004072
:10115400007C0040B2F5405F40D1082577E702F5F6
:10116400DE32D2F8902002F44042B2F5004F37D07C
:1011740005D8BAB3B2F5804F36D1042567E7B2F586
:10118400404F33D1082562E7012560E700255EE77B
:1011940002255CE700255AE7102558E7102556E795
:1011A400022554E7002552E7102550E710254EE7A5
:1011B40002254CE700254AE7102548E7102546E7B5
:1011C400022544E7012542E7102540E710253EE7C4
:1011D40002253CE700253AE7102538E7102536E7D5
:1011E400022534E7002532E7102530E710252EE7E5
:1011F400082D40D8DFE805F00517223F2B3F3F3F7D
:101204003600FFF777FD6268530803EB4003B3FB36
:10121400F2F39BB223F00F02C3F342031343226899
:10122400D360284638BDFFF77BFD6268530803EBA3
:101234004003B3FBF2F39BB20025EBE762682C4B4F
:1012440003EB5203B3FBF2F39BB20025E2E7FFF793
:10125400D3FB6268530803EB4003B3FBF2F39BB286
:101264000025D7E76268530803F58033B3FBF2F334
:101274009BB20025CEE701250023CBE7FFF73AFD1B
:10128400626800EB5203B3FBF2F322689BB2D360B3
:10129400C7E7FFF745FD626800EB5203B3FBF2F3C7
:1012A40022689BB2D3600025BBE76168114A02EB58
:1012B4005102B2FBF1F292B2DA600025B1E7FFF716
:1012C4009BFB626800EB5203B3FBF2F322689BB210
:1012D400D3600025A5E761684A0802F50042B2FB25
:1012E400F1F292B2DA6000259BE7012599E700BF8D
:1012F4000048E8010024F40010B50446436AFF2BBB
:1013040000F2B080636A13F0010F11D0A26AB2F543
:10131400003318BF0123002A08BF0023002B40F02C
:10132400A7802268536823F40033A16A0B435360F7
:10133400636A13F0020F11D0E26AB2F5803318BF6A
:101344000123002A08BF0023002B40F09780226865
:10135400536823F48033E16A0B435360636A13F0E8
:10136400040F11D0226BB2F5802318BF0123002A89
:1013740008BF0023002B40F087802268536823F4C1
:101384008023216B0B435360636A13F0080F10D062
:10139400626BB2F5004318BF0123002A08BF002383
:1013A400002B77D12268536823F40043616B0B430D
:1013B4005360636A13F0100F10D0A26BB2F5805320
:1013C40018BF0123002A08BF0023002B68D122681C
:1013D400936823F48053A16B0B439360636A13F007
:1013E400200F10D0E26BB2F5005318BF0123002A7E
:1013F40008BF0023002B59D12268936823F40053BB
:10140400E16B0B439360636A13F0400F14D0226CBA
:10141400B2F5801318BF0123002A08BF0023002B54
:101424004AD12268536823F48013216C0B43536020
:10143400236CB3F5801F45D0636A13F0800F10D07E
:10144400A26CB2F5002318BF0123002A08BF0023B1
:10145400002B54D12268536823F40023A16C0B435E
:10146400536010BD40F29671284800F01FF949E717
:1014740040F29B71254800F019F952E740F2A2713D
:10148400224800F013F962E740F2A9711F4800F006
:101494000DF972E74FF4F6611C4800F007F981E793
:1014A40040F2B771194800F001F990E740F2BE71BB
:1014B400164800F0FBF89FE740F2C571134800F0AE
:1014C400F5F8AEE7626CB2F5001318BF0123002AE9
:1014D40008BF00232BB1B2F5800F02D0B2F5C00FC4
:1014E40007D12268536823F4C003616C0B43536033
:1014F400A2E740F2CA71054800F0D8F8F1E740F2DB
:10150400D271024800F0D2F8A4E700BFE419000841
:1015140030B583B004460023C366FEF761FF054679
:1015240023681B6813F0080F0ED123681B6813F09F
:10153400040F17D1202384F8693084F86A3000201E
:1015440084F8680003B030BD6FF07E430093034617
:1015540000224FF400112046FFF7F9FB0028E4D0E5
:101564000320EFE76FF07E4300932B4600224FF4F5
:1015740080012046FFF7EBFB0028DBD00320E1E7E6
:1015840000287DD010B504468369002B49D0036838
:101594003C493D4A8B4218BF93421BD002F58062FE
:1015A400934217D002F58062934213D002F5806211
:1015B40093420FD002F5444293420BD0A2F51C4251
:1015C400934207D002F58062934203D0FE212F4854
:1015D40000F06CF894F86930002B47D0242384F889
:1015E40069302268136823F0010313602046FFF773
:1015F40047FC012814D0636A002B3DD1226853684C
:1016040023F4904353602268936823F02A03936081
:101614002268136843F0010313602046FFF778FF44
:1016240010BD03681749184A8B4218BF9342D1D0A2
:1016340002F580629342CDD002F580629342C9D014
:1016440002F580629342C5D002F544429342C1D070
:10165400A2F51C429342BDD002F580629342B9D0F8
:1016640040F20311094800F021F8B3E784F8683028
:101674002046FFF76BFBB1E72046FFF73DFEBDE7D1
:10168400012070470010014000440040E4190008A4
:10169400FEE708B50120FFF7FBFF0000012303600C
:1016A400014B0B60704700BF0400002008B5FFF732
:1016B400F0FF000008B500F009F8024A024B9A60F6
:1016C40008BD00BF0000000800ED00E00B4B1A68E5
:1016D40042F001021A60002199601868084A024029
:1016E4001A60084A5A601A6822F480221A60D96083
:1016F400054B4FF000629A60704700BF003802400B
:10170400FFFFF6FE1030002400ED00E0224B9B6842
:1017140003F00C03042B14D0082B16D01BB11F4B61
:101724001F4A1A6002E01D4B1D4A1A601A4B9B683F
:10173400C3F303131B4AD15C184A1368CB401360EC
:101744007047164B184A1A60F0E7134B5A685B68E7
:1017540003F03F0312F4800F13D0134AB2FBF3F2E9
:101764000D4B5B68C3F3881303FB02F30A4A526808
:10177400C2F3014201325200B3FBF2F3074A136091
:10178400D4E7074AB2FBF3F2034B5B68C3F3881355
:1017940003FB02F3EAE700BF003802400C0000201C
:1017A4000024F400141A000800127A0010B5BFF3E4
:1017B4004F8FBFF36F8F1C4B0021C3F850125A692F
:1017C40042F400325A61BFF34F8FBFF36F8FC3F8F7
:1017D4008410BFF34F8FD3F88000C0F34E3200E083
:1017E4001A46C0F3C90143F6E07303EA421343EA1D
:1017F40081730D4CC4F860320B460139002BF2D1D1
:10180400531E002AECD1BFF34F8F636943F4803336
:101814006361BFF34F8FBFF36F8FFEF7CFFD00F00F
:1018240033F8FFF773FF10BD00ED00E082B00A4B00
:101834001A6B42F008021A631A6B02F00802009253
:10184400009A1A6B42F001021A631B6B03F0010346
:101854000193019B02B070470038024008B5084864
:10186400084B03604FF4E133436000238360C3609B
:1018740003610C2242618361C361FFF781FE08BDED
:10188400200000200010014030B593B02822002130
:1018940008A800F023F8002401940294039404940B
:1018A4000594012306934FF480320792099302258D
:1018B4000C954FF480030D9306A8FEF71DFE0F232D
:1018C4000193029503944FF480530493059429469D
:1018D40001A8FFF7DBF813B030BD7047F0B48607FA
:1018E40046D0541E002A3CD0CAB2034602E014F18A
:1018F400FF3436D303F8012B9D07F8D1032C29D9E3
:10190400CDB245EA05250F2C45EA054533D9A4F1A6
:101914001006360903F1200707EB061703F110023E
:1019240042E9045542E902551032BA42F8D1721C18
:1019340014F00C0F03EB021204F00F0613D0331F44
:1019440023F003030433134442F8045B9342FBD1B2
:1019540006F003042CB1C9B21C4403F8011B9C42D9
:10196400FBD1F0BC704734461346002CF3D1F8E7A2
:1019740014460346C2E71A462646E0E72E2E2F7386
:10198400797374656D2F7372632F73746D3332665C
:10199400372D68616C2F73746D3332663778785FD6
:1019A40068616C5F636F727465782E630000000079
:1019B4002E2E2F73797374656D2F7372632F737466
:1019C4006D333266372D68616C2F73746D333266F4
:1019D4003778785F68616C5F7263632E6300000020
:1019E4002E2E2F73797374656D2F7372632F737436
:1019F4006D333266372D68616C2F73746D333266C4
:101A04003778785F68616C5F756172742E6300006B
:101A1400000000000000000001020304060708099A
:101A2400000000000102030448656C6C6F20576FCE
:101A3400726C640000000000000000000000000060
:011A440000A1
:101A48007856341218000020000000000024F4002A
:041A580032547698F6
:020000040802F0
:1000000000B589B00E4A01AB07CA83E80700002398
:100010000493059306938DF81C30E0F7D1F9E1F7CE
:1000200035FCE1F705FCE1F71BFC6423192201A96B
:100030000448E0F7C2FE4FF4FA70E0F7D9F9F4E7AC
:080040002C1A0008200000202A
:04000005080001C925
:00000001FF
